:060000000A128A110C280F
:10000800FE00030EF0000A08F1000A128A11C62C3D
:100018000A128A110F28FA01FB0183120313C40183
:10002800C501C601C701C801C901CA01CB018301C5
:100038000A128A111F280A128A11E9240A128A113F
:100048000A128A1106250A128A11831203134B0811
:10005800031D2F283028B429F201F301F401F5011A
:10006800F601F60A01300A128A1182240A128A114C
:10007800143083120313BC000030BD008312031335
:100088003D08C9003C08C8003C08033EC6003D08BE
:100098000318013E003EC7004708A1004608A0001B
:1000A8004908A3004808A2000A128A11E2220A128B
:1000B8008A1183120313AA01AB01F2010A128A11F1
:1000C80037240A128A11013083120313AA0703186E
:1000D800AB0A0030AB072B08803AFF0080307F0264
:1000E800031D78280A302A02031C7B287C286128F3
:1000F800FF3083120313BC070318BD0AFF30BD0786
:100108003D08803AFF0080307F02031D8D280130B2
:100118003C020318902891284228F201F301F401C7
:10012800F501F50AF60101300A128A1182240A1231
:100138008A11033083120313BE000030BF008312FC
:1001480003133F08C9003E08C8003F08C7003E081F
:10015800C6004708A1004608A0004908A3004808AF
:10016800A2000A128A11E2220A128A1183120313C8
:10017800AC01AD01F2010A128A1137240A128A1160
:10018800013083120313AC070318AD0A0030AD0722
:100198002D08803AFF0080307F02031DD5280A30E1
:1001A8002C02031CD828D928BE28FF308312031339
:1001B800BE070318BF0AFF30BF073F08803AFF0099
:1001C80080307F02031DEA2801303E020318ED2823
:1001D800EE28A328F201F301F30AF401F40AF50169
:1001E800F60100300A128A1182240A128A110C3090
:1001F80083120313C0000030C100831203134108A7
:10020800C7004008C6004008033EC800410803185C
:10021800013E003EC9004708A1004608A000490861
:10022800A3004808A2000A128A11E2220A128A11BF
:1002380083120313AE01AF012F08803AFF0080300C
:100248007F02031D29290A302E02031C2C292D297F
:100258002E293D29F2010A128A1137240A128A111D
:10026800013083120313AE070318AF0A0030AF073B
:100278002029FF3083120313C0070318C10AFF3077
:10028800C1074108803AFF0080307F02031D4E29D4
:10029800013040020318512952290129F201F20ABA
:1002A800F301F401F40AF501F60100300A128A118B
:1002B80082240A128A11033083120313C200003009
:1002C800C3004308803AFF0080307F02031D6E2977
:1002D80001304202031871297229732929288312CF
:1002E80003134308C7004208C6004308C900420870
:1002F800C8004708A1004608A0004908A30048080C
:10030800A2000A128A11E2220A128A118312031326
:10031800B001B1013108803AFF0080307F02031D2F
:1003280097290A303002031C9A299B299C29AB295A
:10033800F2010A128A1137240A128A110130831233
:100348000313B0070318B10A0030B1078E29FF3034
:1003580083120313C2070318C30AFF30C3076529B2
:100368004A08031DB829B9294B2AF201F301F401FF
:10037800F501F601F60A01300A128A1182240A12DE
:100388008A11003083120313A000A1000030A200DC
:10039800A3000A128A11E2220A128A118312031395
:1003A800BA01DD293A30F2000A128A1137240A12FA
:1003B8008A11831203133A08031DE329E429E92962
:1003C8004B030319E829E929D6293A080319ED2925
:1003D800EE29DE2AF201F301F401F501F50AF6012E
:1003E80001300A128A1182240A128A1103308312F8
:1003F8000313B6000030B7003708803AFF0080309A
:100408007F02031D092A0130360203180C2A0D2A1F
:100418000E2A462A003083120313A000A1003708D1
:10042800A3003608A2000A128A11E2220A128A11CF
:1004380083120313B201B3013308803AFF008030FE
:100448007F02031D292A0A303202031C2C2A2D2A76
:100458002E2A3D2AF2010A128A1137240A128A1119
:10046800013083120313B2070318B30A0030B3072D
:10047800202AFF3083120313B6070318B70AFF3088
:10048800B707002A013083120313CA002928F20192
:10049800F301F30AF401F40AF501F60100300A1237
:1004A8008A1182240A128A11003083120313A000D1
:1004B800A1000030A200A3000A128A11E2220A1247
:1004C8008A1183120313BB01702A3B30F2000A120F
:1004D8008A1137240A128A11831203133B08031D59
:1004E800762A772A7C2A4B0303197B2A7C2A692AD5
:1004F8003B080319802A812ADE2AF201F20AF30155
:10050800F401F40AF501F60100300A128A11822476
:100518000A128A11033083120313B8000030B9009D
:100528003908803AFF0080307F02031D9D2A013080
:1005380038020318A02AA12AA22ADA2A831203134E
:100548003908A1003808A0000030A200A3000A1250
:100558008A11E2220A128A1183120313B401B50127
:100568003508803AFF0080307F02031DBD2A0A301B
:100578003402031CC02AC12AC22AD12AF2010A1253
:100588008A1137240A128A11013083120313B4071F
:100598000318B50A0030B507B42AFF3083120313D5
:1005A800B8070318B90AFF30B907942A831203134E
:1005B800CA01292829280A128A110C288312031330
:1005C800A11FE72AE82AEA2AA001A1012108803A06
:1005D800FF0080307F02031DF32A64302002031CD1
:1005E800F62AF72AFD2A633083120313A00000308D
:1005F800A10083120313A31F022B032B052BA201B7
:10060800A3012308803AFF0080307F02031D0E2BD0
:1006180064302202031C112B122B182B6330831217
:100628000313A2000030A3000A30F2000030F300E8
:10063800831203132108F5002008F4000A128A1116
:100648007D230A128A11720883120313A6000A3046
:10065800F2000030F3002108F5002008F4000A1227
:100668008A11E0230A128A11720883120313A70061
:100678000A30F2000030F3002308F5002208F400E5
:100688000A128A117D230A128A117208831203132F
:10069800A8000A30F2000030F3002308F500220811
:1006A800F4000A128A11E0230A128A1172088312CE
:1006B8000313A9000F302705A4002608A50003305E
:1006C8000310A50DFF3E031D642B0310250D240404
:1006D80087000F302905A4002808A500033003105F
:1006E800A50DFF3E031D732B0310250D2404880060
:1006F8000800F701F31F812B822B892BF209F309DC
:10070800F20A0319F30A0130F700F51F8C2B8D2B21
:10071800942BF409F509F40A0319F50A0130F706D0
:10072800F801F9017208730403199B2B9C2BD12B38
:100738000130F600A82B01300310F20DF30DFF3E37
:10074800031DA02B0130F607F31FAB2BAC2B9F2BFF
:1007580001300310F80DF90DFF3E031DAD2B730892
:100768007502031DB92B72087402031CBC2BBD2B28
:10077800C42B7208F4027308031CF503F5027814FD
:1007880001300310F30CF20CFF3E031DC52B0130A2
:10079800F602031DD02BD12BAC2B77080319D52BD0
:1007A800D62BDB2BF809F909F80A0319F90A790895
:1007B800F3007808F2000800F701F51FE42BE52B99
:1007C800EC2BF409F509F40A0319F50A0130F700CE
:1007D800F31FEF2BF02BF52BF209F309F20A03199B
:1007E800F30A720873040319FA2BFB2B282C013027
:1007F800F600072C01300310F20DF30DFF3E031D28
:10080800FF2B0130F607F31F0A2C0B2CFE2B730865
:100818007502031D112C72087402031C142C152C6C
:100828001B2C7208F4027308031CF503F50201304F
:100838000310F30CF20CFF3E031D1C2C0130F602D2
:10084800031D272C282C0B2C770803192C2C2D2C56
:10085800322CF409F509F40A0319F50A7508F300AE
:100868007408F20008000230F5000430F400BA30D1
:10087800F300F30B3D2CF40B3D2CF50B3D2C000045
:10088800831203138618492C4A2C522C7A0A03190E
:100898004E2C4F2C592C0130FA07592C7A08031981
:1008A800562C572C592C0130FA0203307A02031CBB
:1008B8005E2C5F2C6A2CFA0172080319642C652CD3
:1008C8006A2C720884000130831380007B080319A6
:1008D8006E2C6F2C812C0130C4070318C50A003018
:1008E800C50700304502153003194402031C7D2C4E
:1008F8007E2C812CC401C501FB010800F700770894
:10090800031D872C8B2C8312031305148E2C831242
:10091800031305107208031D922C962C83120313DF
:100928008514992C8312031385107308031D9D2CBD
:10093800A12C831203130515A42C8312031305118C
:100948007608031DA82CAC2C831203138515AF2C35
:100958008312031385117508031DB32CB72C83125A
:1009680003130516BA2C8312031305127408031D0A
:10097800BE2CC22C831203138516C52C83120313B5
:10098800851208008B1CC92CCA2CE22C7B08031D7D
:10099800CE2CCF2CE12C831203134B08031DD52C2E
:1009A800D62CD92C0130CB00DA2CCB010A128A11B3
:1009B80011250A128A110130FB008B1071088A0078
:1009C800700E8300FE0E7E0E090083160313850148
:1009D80083120313850183160313870183120313FC
:1009E8008701831603138801831203138801FF30DC
:1009F8008316031386008B1001138B170B168113B4
:100A0800FB010800143083120313C8000030C9002A
:100A18001730C6000030C7000800143083120313D3
:100A2800C8000030C9001730C6000030C7000800F1
:0E0A380005308A000408840A82070034033463
:00000001FF
